:020000040800F2
:1000000008140020610500083503000837030008C4
:100010003B0300083F030008430300080000000002
:10002000000000000000000000000000470300087E
:1000300049030008000000004B0300084D030008BE
:100040007B0500087B0500087B0500087B05000890
:100050007B0500087B0500087B0500087B05000880
:100060007B0500087B0500087B0500087B05000870
:100070007B0500087B0500087B0500087B05000860
:100080007B0500087B0500087B0500087B05000850
:100090007B0500087B0500087B0500087B05000840
:1000A0007B0500087B0500087B0500087B05000830
:1000B0007B0500087B0500087B0500087B05000820
:1000C0007B0500087B0500087B0500087B05000810
:1000D0007B0500082D2200087B0500083D2800084C
:1000E0007B0500087B0500087B0500087B050008F0
:1000F0007B0500087B0500087B0500087B050008E0
:100100007B0500087B0500087B0500087B050008CF
:100110007B0500087B0500087B050008DD29000839
:100120007B0500087B0500087B0500087B050008AF
:100130007B0500087B0500087B0500087B0500089F
:100140007B0500087B0500087B0500087B0500088F
:100150007B0500087B0500087B0500087B0500087F
:100160007B0500087B0500087B0500087B0500086F
:100170007B0500087B0500087B0500087B0500085F
:100180007B0500087B05000800F002F800F092F8FB
:100190000AA090E8000C82448344AAF10107DA45E2
:1001A00001D100F087F8AFF2090EBAE80F0013F0A2
:1001B000010F18BFFB1A43F00103184798570000BE
:1001C000B8570000103A24BF78C878C1FAD852074F
:1001D00024BF30C830C144BF04680C6070470000C1
:1001E0000023002400250026103A28BF78C1FBD840
:1001F000520728BF30C148BF0B6070476E2902F01C
:100200000385702902F04586662903F05487652925
:1002100003F05187672903F04E876129AFF300800F
:1002200003681B0A28BF41F08001692902F0B084ED
:10023000642902F0AD84752902F0AA846F2902F0C6
:10024000D285782902F01186E92902F06D85E4292A
:1002500002F06A85F52902F06785EF2902F0CF8563
:10026000F82902F010860368DB0928BF41F08001FD
:10027000632903F09481732903F09981E32903F042
:10028000A481F32903F0A981002070471FB503F072
:100290000DFF03F0F3F904000020002103F0F0FE4D
:1002A000401C60600020002103F0D4FEE0601FBD10
:1002B00010B510BD03F0B5F91146FFF7E7FF00F0E8
:1002C00008F803F091FA03B4FFF7F2FF03BC01F062
:1002D0004DFF00BF542001F0C7FE4FF4E13001F0A4
:1002E00053FF4FF4E13002F0D9FA02F0C7F902F0FF
:1002F0005EF801E002F058FBFCE72DE9F04105460D
:100300000027002412E02146002002F01DF80026FC
:1003100008E039467A1C97B2685C012101F0CCFFF5
:10032000701CC6B2802EF4DB601CC4B2082CEADB61
:10033000BDE8F081704700BFFEE700BFFEE700BFE9
:10034000FEE700BFFEE77047704770477047000048
:100350000CB50020019000907648006840F4803091
:100360007449086000BF7348006800F400300090D2
:100370000198401C0190009818B90198B0F5A04F61
:10038000F1D16C48006800F4003010B101200090F9
:1003900001E0002000900098012846D165484030D7
:1003A000006840F08050634940310860624800684E
:1003B00040F44040604908605E48083000685D498C
:1003C000083108600846006840F4004008600846AC
:1003D000006840F4A05008605848091F0860081FD2
:1003E000006840F08070091F086000BF5148006835
:1003F00000F000700028F9D040F205705049086004
:100400004C480830006820F003004A490831086071
:100410000846006840F00200086000BF4548083008
:10042000006800F00C000828F8D10CBD10B5454854
:10043000006840F47000434908603E48006840F09E
:1004400001003C49086000203A49083108603948F9
:1004500000683D490840374908603C48091D08606C
:10046000081F006820F48020091F0860002031491F
:100470000C310860FFF76CFF4FF0006031498039A4
:10048000086010BD70B50020002202230024022164
:10049000284D08352D6805F00C0020B1042806D041
:1004A000082834D107E02A4D2A4E356033E02A4D22
:1004B000284E35602FE01F4D2D1D2D68C5F380544B
:1004C0001C4D2D1D2D6805F03F0154B1224DB5FB8B
:1004D000F1F5184E361D3668C6F3881605FB06F290
:1004E00009E01B4DB5FBF1F5124E361D3668C6F31B
:1004F000881605FB06F20F4D2D1D2D68C5F301452D
:100500006D1C6B00B2FBF3F5124E356003E0104D2D
:10051000104E356000BF00BF064D08352D68C5F38D
:1005200003150E4E705D0B4D2D68C540094E3560AC
:1005300070BD0000003802400070004008544007C1
:10054000003C024088ED00E0FFFFF6FE1030002482
:100550000024F4000000002000127A0004000020B3
:100560000948804709480047FEE7FEE7FEE7FEE747
:10057000FEE7FEE7FEE7FEE7FEE7FEE70448054983
:10058000054A064B704700002D0400088901000849
:10059000080E002008140020081000200810002079
:1005A00032490143324A1160704770B5002100237F
:1005B0000F22C4781CB32E4C246804F4E064C4F504
:1005C000E064C4F30721C1F10404E3B20A414478B2
:1005D0009C40E1B28478144021430C07210E254C45
:1005E00005786155047804F01F050124AC400578B6
:1005F0006D11AD0005F1E025C5F8004109E0047872
:1006000004F01F050124AC401B4D0678761145F817
:10061000264070BD194A0A400243154B1B1F1A6041
:10062000704739B1124A121D12680243104B1B1D4C
:100630001A6006E00E4A121D126882430C4B1B1D05
:100640001A607047042808D14FF0E021096941F091
:1006500004014FF0E022116107E04FF0E021096949
:1006600021F004014FF0E022116170470000FA050B
:100670000CED00E000E400E080E100E080FFFF1FFF
:1006800010B504469848844208D10121084600F07C
:1006900086FB0021012000F082FB76E09348844233
:1006A00008D10121022000F07AFB0021022000F095
:1006B00076FB6AE08E48844208D10121042000F0D4
:1006C0006EFB0021042000F06AFB5EE08948844252
:1006D00008D10121082000F062FB0021082000F071
:1006E0005EFB52E08448844208D10121102000F0D2
:1006F00056FB0021102000F052FB46E07F48844268
:1007000008D10121202000F04AFB0021202000F028
:1007100046FB3AE07A48844208D10121402000F0AB
:100720003EFB0021402000F03AFB2EE07548844259
:1007300008D10121802000F032FB0021802000F050
:100740002EFB22E07048844208D10121801500F080
:1007500026FB0021A01500F022FB16E06B48844226
:1007600008D10121401500F01AFB0021601500F0AE
:1007700016FB0AE06648844207D10121001500F00B
:100780000EFB0021201500F00AFB10BDF0B50A4653
:1007900000210023002400BF3DE0012505FA01F3FC
:1007A000156805EA03049C4234D105684F0003260E
:1007B000BE40B543056015794E00B5400668354327
:1007C00005601579012D02D01579022D16D18568A5
:1007D0004F000326BE40B543856055794E00B540B5
:1007E000866835438560456801268E40B54345607F
:1007F000456896798E40B6B235434560C5684F006E
:100800000326BE40B543C560D5794E00B540C668E5
:100810003543C560491C1029BFD3F0BD4FF6FF71A9
:1008200001600021017141718171C171704708B58A
:100830004FF480320092009A0A430092009AC261FB
:10084000C161009AC261C2690092C269009208BD8A
:100850000246002013690B400BB1012000E000208C
:1008600070470146086980B270470246002053690C
:100870000B400BB1012000E00020704701464869A1
:1008800080B2704701837047418370470AB101838A
:1008900000E0418370474161704742694A404261CC
:1008A0007047F0B5002300244D07ED0E02FA05F362
:1008B000CE1000F1200555F826504E07F70E0F26F2
:1008C000BE40B543CF1000F1200646F82750CE10A9
:1008D00000F1200555F8265045EA0304CE1000F13A
:1008E000200545F82640F0BD00000240000402400B
:1008F00000080240000C02400010024000140240B8
:1009000000180240001C0240002002400024024067
:1009100000280240F948006840F00100F7490860EB
:100920000020F64908310860F4480068F44908409E
:10093000F2490860F348091D0860F348EF49843123
:100940000860F0481038091D0860EC48006820F481
:100950008020EA4908600020E8490C310860E74936
:100960008C31086070470021E44A921C11701146D6
:100970000870704710B501460022002300204A117C
:10098000012A02D1DD4C236808E0022A03D1DB4CA6
:100990007034236802E0D94C7434236801F01F02DC
:1009A000012494401C400CB1012000E0002010BD47
:1009B00038B5002000900024002500BF3120FFF74B
:1009C000D9FF05460098401C00900098B0F5A04F54
:1009D00001D0002DF2D03120FFF7CCFF08B1012467
:1009E00000E00024204638BD01460020C34A1068BC
:1009F00020F0F80040EAC10010607047C349086069
:100A000070470021BD4A703211701170012802D068
:100A100004280AD104E00121B84A7032117005E0BF
:100A20000521B64A7032117000E000BF00BF704768
:100A3000B7490860704770B5049C41EA82150126E9
:100A4000C6EB530645EA0645054345EA0465AB4E49
:100A5000361D356070BDAD4908667047820142EAB7
:100A60000172A64B84331A607047A84988667047A4
:100A700010B5830143EA016343EA02739F4C883453
:100A8000236010BDA14908677047A049C86470473A
:100A900002460020994B0833186820F0EC6042EAC7
:100AA00001031843954B0833186070470246002035
:100AB000924B0833186820F0784042EA010318434B
:100AC0008E4B083318607047014600208B4A08326D
:100AD000106820F003000843106070478748083012
:100AE000006800F00C00704701460020834A08327D
:100AF000106820F0F00008431060704701460020A5
:100B00007E4A0832106820F4E050084310607047B5
:100B100001460020794A0832106820F4604040EA1B
:100B2000C10010607047F0B50021002200240225AA
:100B300000260223714F08373F6807F00C0121B1EE
:100B4000042905D0082937D105E0724F076036E047
:100B5000714F076033E0694F3F1D3F68C7F3805610
:100B6000664F3F1D3F6807F03F036EB16A4FB7FB0A
:100B7000F3F7DFF888C10CF1040CDCF800C0CCF30B
:100B8000881C07FB0CF40CE0624FB7FBF3F7DFF8AF
:100B90006CC10CF1040CDCF800C0CCF3881C07FB22
:100BA0000CF4564F3F1D3F68C7F301477F1C7D0083
:100BB000B4FBF5F7076002E0564F076000BF00BFC7
:100BC0004E4F08373F6807F0F0010909534F7A5C30
:100BD0000768D7404760494F08373F6807F4E0513E
:100BE000890A4E4F7A5C4768D7408760434F083781
:100BF0003F6807F46041490B484F7A5C4768D7402B
:100C0000C760F0BD002100F44072B2F5407F0AD108
:100C10003A4A0832116821F4F811414A024011435E
:100C2000364A08321160354A70321268C0F30B033D
:100C30001A43324B70331A607047354944390860A3
:100C4000704733494039086070473649086070473B
:100C500001460020294A8C32106820F01F004A1EED
:100C60001043264A8C321060704701460020234A08
:100C70008C32106820F4F8504A1E40EA02201F4AC5
:100C80008C3210607047014600201C4A8C3210687C
:100C900020F4401008431060704701460020174AB6
:100CA0008C32106820F44000084310607047014601
:100CB0000020124A8C32106820F440300843106043
:100CC000704719490860704739B10C4A30321268D0
:100CD00002430A4B30331A6006E0084A3032126889
:100CE0008243064B30331A607047F9B1034A3432FD
:100CF00012680243014B34331A601CE00038024092
:100D0000FFFFF6EA103000240030002000004742C8
:100D1000800E47420024F40000127A0014000020E4
:100D2000FFFCFF0F5C014742E01147428F4A126807
:100D300082438E4B1A60704739B18C4A121D12687B
:100D400002438A4B1B1D1A6006E0884A121D126876
:100D50008243864B1B1D1A60704739B1834A0C329F
:100D600012680243814B0C331A6006E07F4A0C3252
:100D7000126882437D4B0C331A60704739B17B4A4D
:100D8000103212680243794B10331A6006E0774A3A
:100D9000103212688243754B10331A60704739B1B4
:100DA000724A243A12680243704B243B1A6006E0F0
:100DB0006E4A243A126882436C4B243B1A60704797
:100DC00039B16A4A203A12680243684B203B1A60E4
:100DD00006E0664A203A12688243644B203B1A6060
:100DE000704739B1614A1C3A126802435F4B1C3BA1
:100DF0001A6006E05D4A1C3A126882435B4B1C3B5A
:100E00001A60704739B1594A143A12680243574B75
:100E1000143B1A6006E0554A143A12688243534B59
:100E2000143B1A60704739B1504A103A12680243B5
:100E30004E4B103B1A6006E04C4A103A126882434F
:100E40004A4B103B1A60704739B1484A1C3212684D
:100E50000243464B1C331A6006E0444A1C321268B7
:100E60008243424B1C331A60704739B13F4A2032EB
:100E7000126802433D4B20331A6006E03B4A2032A1
:100E800012688243394B20331A60704739B1374AB0
:100E9000243212680243354B24331A6006E0334A89
:100EA000243212688243314B24331A60704739B1BF
:100EB0002E4A2C32126802432C4B2C331A6006E067
:100EC0002A4A2C3212688243284B2C331A6070470E
:100ED00039B1264A303212680243244B30331A604B
:100EE00006E0224A303212688243204B30331A60C7
:100EF0007047012808D11D493C31096841F00801BB
:100F00001A4A3C32116007E018493C31096821F067
:100F10000801164A3C321160704739B1134A273A2A
:100F200012780243114B273B1A7006E00F4A273A0A
:100F3000127882430D4B273B1A7070470B484030A4
:100F4000006840F0807009494031086070470146F0
:100F50000020064A283A12680A400AB1012000E03F
:100F60000020704701492639087070473438024024
:100F700010B50446FE48844208D101210846FFF717
:100F800052FF00210120FFF74EFF9DE0B4F1804F9A
:100F900008D101210846FFF735FF00210120FFF7A6
:100FA00031FF91E0F348844208D101210220FFF78C
:100FB00029FF00210220FFF725FF85E0EE4884424B
:100FC00008D101210420FFF71DFF00210420FFF7B5
:100FD00019FF79E0E948844208D101210820FFF790
:100FE00011FF00210820FFF70DFF6DE0E448844267
:100FF00008D101211020FFF705FF00211020FFF785
:1010000001FF61E0DF48844208D101212020FFF781
:10101000F9FE00212020FFF7F5FE55E0DA48844272
:1010200008D101210220FFF7FEFE00210220FFF778
:10103000FAFE49E0D548844209D101210804FFF7AE
:10104000F2FE00214FF48030FFF7EDFE3CE0D04887
:10105000844209D101214804FFF7E5FE00214FF445
:101060000030FFF7E0FE2FE0CA48844209D1012199
:101070008804FFF7D8FE00214FF48020FFF7D3FE4D
:1010800022E0C548844208D101214020FFF7BAFE82
:1010900000214020FFF7B6FE16E0C048844208D188
:1010A00001218020FFF7AEFE00218020FFF7AAFE7D
:1010B0000AE0BB48844207D101218015FFF7A2FE58
:1010C0000021A015FFF79EFE10BD00220288A84B4C
:1010D00098420ED0AC4B98420BD0B0F1804F08D064
:1010E000A44B984205D0A44B984202D0A34B9842FF
:1010F00004D14FF68F731A404B881A43A04B984285
:1011000007D0A04B984204D04FF6FF431A400B89FA
:101110001A4302804B68C3620B880385944B984244
:1011200002D0994B984201D18B7A038601238382A6
:1011300070474FF0FF314160002101800181418003
:10114000817270470185828270470A4600210188BA
:101150004FF68F7319401143018070474162704709
:10116000C16270470146486A70470146088D704762
:1011700021B1028842F00202028004E002884FF6A8
:10118000FD731A400280704721B1028842F00402C8
:10119000028004E002884FF6FB731A400280704719
:1011A00021B1028842F08002028004E002884FF6FA
:1011B0007F731A400280704702884FF6F7731A4017
:1011C000028002880A430280704702884FF6FF437C
:1011D0001A40028002880A430280704721B10288C7
:1011E00042F00102028004E002884FF6FE731A40CA
:1011F0000280704770B5002400220023058C4FF652
:10120000FE7635400584028C8388048B4FF68F75FB
:101210002C40B51E2C400D882C43751E2A408D890C
:101220002A434D882A43524DA84202D0564DA84227
:1012300013D14FF6F7752A40CD892A434FF6FB7537
:101240002A408D882A434FF6FF652B404FF6FF5505
:101250002B400D8A2B434D8A2B43838004838D685A
:101260004563028470BD70B5002400220023058C04
:101270004FF6EF7635400584028C8388048B48F660
:10128000FF752C404FF6FF452C400D884FF6FF763A
:1012900006EA05252C434FF6DF752A408D8906EABC
:1012A00005152A434D8806EA05152A43304DA84204
:1012B00002D0354DA8421DD14FF67F752A40CD8909
:1012C0004FF6FF7606EA05152A434FF6BF752A400A
:1012D0008D8806EA05152A434FF6FF352B404FF25D
:1012E000FF752B400D8A06EA85052B434D8A06EAD9
:1012F00085052B43838004838D688563028470BDDC
:1013000070B5002400220023058C4FF6FF6635409F
:101310000584028C8388848B4FF68F752C404FF6A2
:10132000FC752C400D882C434FF6FF552A408D89C3
:101330004FF6FF7606EA05252A434D8806EA05257D
:101340002A430B4DA84202D00F4DA84238D14FF28C
:10135000FF752A40CD894FF6FF7606EA05252A4318
:101360004FF6FF352A408D8806EA05252A4319E005
:10137000000001400004004000080040000C004054
:1013800000100040001400400004014000400140F3
:10139000004401400048014000180040001C00408B
:1013A000002000404EF6FF752B404DF6FF752B4098
:1013B0000D8A06EA05152B434D8A06EA05152B43CF
:1013C000838084838D68C563028470BD70B50022FC
:1013D00000230024058C4EF6FF7635400584038CEF
:1013E0008488828B48F6FF752A404FF6FF452A40D5
:1013F0000D884FF6FF7606EA05252A434DF6FF7560
:101400002B408D8906EA05352B434D8806EA0535C4
:101410002B43FE4DA84202D0FD4DA84208D14BF609
:10142000FF752C400D8A4FF6FF7606EA85152C4392
:10143000848082838D680564038470BD00210180EF
:101440004180818081608181C181018241827047B8
:1014500070B50346002000241846183001258D4041
:10146000ACB21D8CA5431D8409B108290AD100EB3B
:10147000610005684FF68F763540056005681543B5
:1014800005600FE00D1FC5F34E052844056848F6BA
:10149000FF763540056005684FF6FF7606EA0226BE
:1014A0003543056070BD4163704781637047C16318
:1014B0007047016470470A460021018B4FF68F7315
:1014C00019401143018370470A460021018B48F6F9
:1014D000FF7319404FF6FF7303EA02231943018398
:1014E00070470A460021818B4FF68F7319401143D4
:1014F000818370470A460021818B48F6FF731940AB
:101500004FF6FF7303EA02231943818370470A46AB
:101510000021018B4FF6F773194011430183704787
:101520000A460021018B4FF2FF7319404FF6FF73FB
:1015300003EA02231943018370470A460021818B85
:101540004FF6F77319401143818370470A46002113
:10155000818B4FF2FF7319404FF6FF7303EA0223AA
:101560001943818370470A460021018B4FF6FB73B4
:1015700019401143018370470A460021018B4FF641
:10158000FF3319404FF6FF7303EA02231943018327
:1015900070470A460021818B4FF6FB7319401143B7
:1015A000818370470A460021818B4FF6FF33194033
:1015B0004FF6FF7303EA02231943818370470A46FB
:1015C0000021018B4FF67F7319401143018370474F
:1015D0000A460021018BC1F30E014FF6FF7303EAA7
:1015E00002231943018370470A460021818B4FF67D
:1015F0007F7319401143818370470A460021818B14
:10160000C1F30E014FF6FF7303EA022319438183EE
:1016100070470A460021018C4FF6FD7319401143B3
:10162000018470470A460021018C4FF6F773194078
:101630001143018470470A460021018C4FF6DF7385
:1016400019404FF6FF7303EA0213194301847047F0
:101650000A460021018C4FF67F7319404FF6FF7345
:1016600003EA02131943018470470A460021018CE2
:101670004FF6FF5319404FF6FF7303EA0223194355
:10168000018470470A460021018C4FF2FF73194014
:101690004FF6FF7303EA02231943018470470A4699
:1016A0000021018C4DF6FF7319404FF6FF7303EADA
:1016B000023319430184704730B5002301248C4064
:1016C000A3B2048C9C430484048C02FA01F5ADB2ED
:1016D0002C43048430BD30B5002304248C40A3B2D5
:1016E000048C9C430484048C02FA01F5ADB22C43B3
:1016F000048430BD828B4FF2FF331A408283828B89
:101700004FF6FF7303EA01231A4382837047F0B553
:101710000C461546002100220026078C4EF6FF7C61
:1017200007EA0C070784818B028C4FF6FF7707EAE4
:10173000043640F6FF4739404FF6FF7707EA0527A2
:1017400039434FF6FF7707EA0337394345F6FF770A
:101750003A4046F480573A4381830284F0BD828B3D
:101760004FF6F3731A408283828B0A438283704759
:10177000F0B50C461546002100220026078C4FF6D6
:10178000FF6C07EA0C070784818B028C4FF6FF770A
:1017900007EA04264FF60C7739404FF6FF7707EA41
:1017A00003172F4339434FF2FF573A4046F48077EF
:1017B0003A4381830284F0BD028B4FF2FF331A401B
:1017C0000283028B4FF6FF7303EA01231A4302835D
:1017D0007047F0B50C461546002100220026078C04
:1017E0004FF6EF7C07EA0C070784018B028C4FF65B
:1017F000FF7707EA041640F6FF4739404FF6FF77B8
:1018000007EA033739434FF6FF7703E00000014052
:101810000004014007EA052739434FF65F773A4055
:1018200046F010073A4301830284F0BD028B4FF665
:10183000F3731A400283028B0A4302837047F0B5A8
:101840000C46154600210022068C4FF6FE773E40DE
:101850000684018B028C4FF60C7631407E1C06EA22
:1018600003162E4331434FF6F576324044F001061D
:10187000324301830284F0BD70B505460C462088D2
:1018800050B92389A28861882846FFF7D8FFE188EC
:101890002846FFF7CBFF25E0208804280AD12389BA
:1018A000A28861882846FFF794FFE1882846FFF761
:1018B00083FF17E0208808280AD12389A28861883D
:1018C0002846FFF755FFE1882846FFF748FF09E063
:1018D0002389A28861882846FFF719FFE1882846F6
:1018E000FFF708FF70BD0021018041800121818048
:1018F0000021C180018170472DE9F04105460C4669
:1019000000260127608808B9022600E00026A0888A
:10191000012801D1022700E001272088A0B92389EE
:10192000A28861882846FFF78AFFE1882846FFF7EA
:101930007DFF23893A4631462846FFF74AFFE18872
:101940002846FFF739FF13E02389A28861882846DB
:10195000FFF73FFFE1882846FFF72EFF23893A462D
:1019600031462846FFF76BFFE1882846FFF75EFF08
:10197000BDE8F0810146486B70470146886B7047AF
:101980000146C86B70470146086C70470A884B884F
:101990001A438B881A43CB881A430B891A434B8905
:1019A0001A438B891A43A0F8442070470021018014
:1019B00041808180C180018141818181704731B145
:1019C000B0F8442042F40042A0F8442005E0B0F80A
:1019D0004420C2F30E02A0F84420704721B182884F
:1019E00042F00402828004E082884FF6FB731A40C2
:1019F0008280704721B1828842F00102828004E037
:101A000082884FF6FE731A40828070471AB183892C
:101A10000B43838102E083898B43838170478182FA
:101A2000704702460020138A0B400BB1012000E0F2
:101A300000207047CA430282704730B5024600203A
:101A400000230024158A05EA0103958905EA0104AB
:101A500013B10CB1012000E0002030BDCA43028266
:101A6000704741EA0203A0F8483070471AB18389F1
:101A70000B43838102E083898B438381704721B1CB
:101A8000828842F00802828004E082884FF6F77371
:101A90001A408280704701894FF6F8721140018127
:101AA00070470A46002101894FF68F731940114390
:101AB0000181704730B504460D4629462046FFF7A0
:101AC000F0FF208940F00700208130BD2DE9F04172
:101AD00004460D4616461F46602D06D13B460122A0
:101AE00031462046FFF775FE05E03B4601223146B0
:101AF0002046FFF7A4FE29462046FFF7D2FF2089A3
:101B000040F007002081BDE8F08130B50C4600218F
:101B10000189C9B24FF6FF7505EA03251543254330
:101B20002943018130BD2DE9F04105460E46174697
:101B30009846002443463A4631462846FFF7E5FFDB
:101B40002C894FF6F870044044F007044FF68F706C
:101B5000044044F070042C81BDE8F081F0B50446E7
:101B60000D4616461F463B46324629462046FFF79D
:101B7000CCFF208940F480402081F0BD82884FF660
:101B80008F731A40828082880A438280704702895C
:101B90004FF6F8731A40028102890A4302817047A6
:101BA00002894FF67F731A40028102890A4302813B
:101BB0007047F0B50C4615461E4600210022002352
:101BC0000189028B038C4FF6F877394021434FF699
:101BD000FC473A4040F201173A434FF6DD773B406D
:101BE0004FF6FF7707EA06172F433B430181028335
:101BF0000384F0BD21B1828842F08002828004E03B
:101C000082884FF67F731A4082807047A0F8501088
:101C10007047000010B50446FA48844208D10121FB
:101C20001020FFF700F900211020FFF7FCF857E023
:101C3000F548844209D101214804FFF7E3F8002167
:101C40004FF40030FFF7DEF84AE0F048844209D153
:101C500001218804FFF7D6F800214FF48020FFF718
:101C6000D1F83DE0EA48844209D10121C804FFF7D8
:101C7000C9F800214FF40020FFF7C4F830E0E54830
:101C8000844209D101210805FFF7BCF800214FF477
:101C90008010FFF7B7F823E0DF48844208D1012124
:101CA0002020FFF7C0F800212020FFF7BCF817E044
:101CB000DA48844209D101218807FFF7A3F80021FF
:101CC0004FF08040FFF79EF80AE0D548844207D1E4
:101CD00001214005FFF796F800216005FFF792F813
:101CE00010BD2DE9FF4705460E460024A14600BF62
:101CF000A046B08900B100BF2C8A24F44054F0887B
:101D000004432C82AC8941F20C608443B088318951
:101D10000843718908430443AC81AC8A24F44074BD
:101D2000B0890443AC826846FEF7FDFEB5488542A3
:101D300002D0B948854202D1DDF80C9001E0DDF80F
:101D40000890A88900F4004040B109EBC90000EBFD
:101D5000091031684900B0FBF1F707E009EBC90051
:101D600000EB091031688900B0FBF1F76420B7FB84
:101D7000F0F004012009642101FB1078A88900F427
:101D8000004040B1322000EBC800B0FBF1F000F0A1
:101D90000700044308E0322000EB08106421B0FB88
:101DA000F1F000F00F0004432C81BDE8FF874FF4F1
:101DB0001651016000218180C18001810C21418187
:101DC00000218181704710B502460020108A20F45E
:101DD00070600B884C8823438C882343CC88234332
:101DE0001843108210BD0021018041808180C18094
:101DF000704721B1828942F40052828104E08289D5
:101E00004DF6FF731A4082817047028B02F47F42C5
:101E10000283028B0A430283704721B1828942F414
:101E20000042828103E08289C2F30E028281704700
:101E300021B1828A42F40062828204E0828A4FF2F7
:101E4000FF731A4082827047C1F308028280704794
:101E500001468888C0F308007047028A4FF6F07385
:101E60001A400282028A0A430282704721B18289A3
:101E700042F00202828104E082894FF6FD731A402B
:101E80008281704782894FF2FF731A408281828972
:101E90000A4382817047028A4FF6DF731A4002823A
:101EA000028A0A430282704721B1028A42F48042C8
:101EB000028204E0028A4BF6FF731A4002827047E6
:101EC000818941F001018181704721B1828A42F00C
:101ED0000802828204E0828A4FF6F7731A408282F7
:101EE0007047028BD2B20283028B42EA0122028344
:101EF000704721B1828A42F02002828204E0828A05
:101F00004FF6DF731A408282704721B1828A42F015
:101F10001002828204E0828A4FF6EF731A408282B6
:101F20007047828A4FF6FB731A408282828A0A4384
:101F30008282704721B1828A42F00202828204E0EA
:101F4000828A4FF6FD731A40828270471AB1838AE3
:101F50000B43838202E0838A8B4383827047F0B510
:101F60000346002400260025002040F66A17B942E7
:101F700000D100BF1846C1F3421401F01F0601272B
:101F800007FA06F5012C01D10C3004E0022C01D136
:101F9000103000E014301AB107682F43076002E0E8
:101FA0000768AF430760F0BD02460020B1F5007F2F
:101FB00000D100BF13880B400BB1012000E00020CE
:101FC000704701F40072B2F5007F00D100BFCA4330
:101FD0000280704770B502460024002300250020CF
:101FE00040F66A16B14200D100BFC1F3421501F0BC
:101FF0001F03012606FA03F3012D13D196893340FE
:1020000017E000000010014000440040004800407C
:10201000004C004000500040001401400078004097
:10202000007C0040022D02D1168A334001E0968ADE
:1020300033400C12012606FA04F41688344013B11A
:102040000CB1012000E0002070BD10B5002200237B
:1020500040F66A14A14200D100BF0A120124944044
:10206000A3B2DC43048010BD10B504466FF0040039
:10207000FEF7E8FAE11704EB5171C1F3C701394AE1
:1020800011701046007800EB4001C1EBC0104FF614
:10209000FF7101EAC0003449088010BD0146314A91
:1020A00012784A434FF0E0235A6100229A611A469F
:1020B000126942F001021A6100BF4FF0E02210697C
:1020C00000F001021AB100F48032002AF5D04FF07E
:1020D000E022126922F001024FF0E0231A6100228F
:1020E0009A6170470146204A12884A434FF0E02324
:1020F0005A6100229A611A46126942F001021A617D
:1021000000BF4FF0E022106900F001021AB100F4A4
:102110008032002AF5D04FF0E022126922F001024D
:102120004FF0E0231A6100229A61704770B50446AF
:102130004FF4077094FBF0F0C6B24FF4077094FBB5
:10214000F0F100FB114085B205E04FF40770FFF796
:10215000C9FF701EC6B2002EF7D115B12846FFF791
:10216000C1FF70BD2400002026000020014600BFF2
:10217000704700BF4C4A128802F04002002AF9D092
:10218000C2B2494B9A80704710B588B0044601210D
:102190000846FEF799FD01211020FEF7EFFD07220A
:1021A00009214248FEF77DFB07220A213F48FEF73E
:1021B00078FB4FF4C060069002208DF81C008DF86B
:1021C0001D0000208DF81E0001208DF81F0006A9BB
:1021D0003648FEF7DBFA02940020ADF80C00ADF8AB
:1021E0000E00ADF81000ADF814000C20ADF8120090
:1021F00002A92D48FFF775FD01212B48FFF7F9FDD6
:10220000012240F225512848FFF7A9FE25208DF82C
:10221000040003208DF805008DF8060001208DF8DC
:10222000070001A8FEF7C1F908B010BD10B540F2D3
:1022300025511D48FFF7CEFE10B31B48FFF708FEDF
:10224000C4B21B48008800F40040C8B91848008890
:1022500000F4804060B10A2C03D0002014490880AB
:1022600020E01348008840F400401149088019E03C
:102270000D2C06D10E48008840F480400C4908809F
:1022800010E00B480088C0F30D000A490C540848C0
:102290000088401C0649088008460088C72801DDE0
:1022A0000020088010BD0000001001400000024026
:1022B0002C0000203000002010B50246FE4B1960B3
:1022C0000023FE4CC4F89C32802011E00023FC4C1B
:1022D000236002EA00031BB10123241D236003E0F5
:1022E0000023F74C241D23600123F54C236040108C
:1022F0000028EBD10123F34C2360F34CC4F898324F
:1023000010BD30B500241CE004F1B001C8B20021BA
:10231000FFF7D2FF00210846FFF7CEFF0021102073
:10232000FFF7CAFF002508E0E84901EBC501085D99
:102330000121FFF7C1FF681CC5B2802DF4DB601CD2
:10234000C4B2082CE0DB30BD30B504460D4605F1C3
:10235000B001C8B20021FFF7AFFF102141EA14100D
:102360000021FFF7A9FF04F00F0141F00100002157
:10237000FFF7A2FF30BD00B500218D20FFF79CFFC5
:1023800000211420FFF798FF0021AF20FFF794FFF2
:1023900000BD00B500218D20FFF78EFF0021102029
:1023A000FFF78AFF0021AE20FFF786FF00BD30B5A2
:1023B00000240CE0002506E00020C44901EBC50123
:1023C0000855681CC5B2802DF6DB601CC4B2082C11
:1023D000F0DBFFF796FF30BDF0B5144600267F28EE
:1023E00001DC3F2900DDF0BD0B46CF1701EB57772D
:1023F000FF10C7F10707FAB2CF1701EB5777FF10AD
:10240000A1EBC707FDB2C5F107070123BB40DEB250
:102410004CB1AE4B03EBC0039B5C3343AB4F07EBBC
:10242000C007BB5408E0A94B03EBC0039B5CB3435C
:10243000A64F07EBC007BB5400BFD4E72DE9F04718
:1024400006460F4690469946DDF820A034460CE03B
:102450003D4606E0524629462046FFF7BDFF681C70
:10246000C5B24D45F6DD601CC4B24445F0DDFFF752
:1024700048FFBDE8F0872DE9F84F80460F46164625
:102480001C46BA462046E31704EB5373DB10214683
:102490004FEAE47C04EB5C7C4FEAEC0CA4EBCC0C44
:1024A000BCF1000F02D04FF0010C01E04FF0000C26
:1024B0006344224604EBD27C4FEA6C0C03FB0CF322
:1024C00003F0FF0BA6F12000C6B200254EE00C2C55
:1024D00007D106EB46007E4901EB8000405D00908D
:1024E00013E0102C05D17B4800EB0610405D0090F6
:1024F0000BE0182C07D106EBC600774901EB8000F2
:10250000405D009001E0BDE8F88F4FF0000927E042
:10251000009800F0800028B1394640460A9AFFF73B
:102520005BFF09E00A9808B9012000E0002002469C
:1025300039464046FFF750FF00984006000E0090D5
:10254000781CC7B2A7EB0A00A04205D1574608F194
:10255000010000F0FF0806E009F1010000F0FF09AA
:10256000B9F1080FD4DB00BF681CC5B25D45AEDB16
:1025700000BFC8E710B50246012000E050430B1E23
:10258000A1F10104E1B2F9D110BD2DE9FF4F81B0F5
:10259000074691461E460E9D4FF0000A002439E082
:1025A000301B401EC1B20A20FFF7E4FFB9FBF0F078
:1025B0000A21B0FBF1F201FB1208BAF1000F16D1AB
:1025C000701EA04213DDB8F1000F0ED10120AB4602
:1025D00005EBDB71491001FB04710090C8B22B467A
:1025E00020220299FFF747FF12E04FF0010A012075
:1025F000AB4605EBDB71491001FB04710090C8B2DA
:1026000008F13001CAB22B460299FFF734FF00BF30
:10261000601CC4B2B442C3DB05B0BDE8F08FF8B5AE
:1026200006460F4615461C4621E004EBD4714910BE
:10263000C1F18001B14202DA00263819C7B2C4F1F3
:102640004000B84204DA002006460746FFF7AFFE16
:10265000012000902A78234639463046FFF70BFFC9
:10266000204604EBD07106EB6101CEB26D1C2878D8
:102670007E2802DC28782028D7DAF8BD1CB5012195
:102680005F20FEF721FB8020009001208DF80400E0
:1026900000208DF8060003208DF8050001208DF83C
:1026A000070069460D48FEF771F8C02000906946A2
:1026B0000B48FEF76BF815E09882414200804042DB
:1026C000980241429C82404200804142F800002032
:1026D000BA4000082E4500081E4B000800040240C6
:1026E000000802404020009069464C48FEF74EF832
:1026F0004FF40040009069464948FEF747F8012032
:10270000484908604849C1F8980248490860484962
:1027100008600020474908606420FFF707FD01209A
:102720004549C1F8BC020021AE20FFF7C5FD0021DC
:102730000846FFF7C1FD00211020FFF7BDFD002175
:102740004020FFF7B9FD00218120FFF7B5FD0021F2
:10275000CF20FFF7B1FD0021A120FFF7ADFD002143
:10276000C820FFF7A9FD0021A620FFF7A5FD002145
:10277000A820FFF7A1FD00213F20FFF79DFD0021CC
:10278000D320FFF799FD00210846FFF795FD0021B2
:10279000D520FFF791FD00218020FFF78DFD00215E
:1027A000D920FFF789FD0021F120FFF785FD0021E9
:1027B000DA20FFF781FD00211220FFF77DFD0021C7
:1027C000DB20FFF779FD00214020FFF775FD002198
:1027D0002020FFF771FD00210220FFF76DFD002191
:1027E0008D20FFF769FD00211420FFF765FD002112
:1027F000A420FFF761FD0021A620FFF75DFD002169
:10280000AF20FFF759FD0021AF20FFF755FDFFF77F
:10281000CEFD00210846FFF797FD1CBD000C0240CD
:10282000001802409C024142000041429C8240420A
:1028300098824142BC0243420000434210B540F23C
:1028400025516048FFF7C6FB00B35E48FFF700FB69
:10285000C4B25D48008800F40040B8B95A48008806
:10286000B0F5806F13DA00215848FEF777FC564820
:10287000008818B901215548FEF7B0FC524801887C
:102880000088401C504A10805148445405E04E488E
:10289000008840F400404C49088010BD10B588B055
:1028A000044601210220FEF70FFA01218804FEF7F9
:1028B00054FA4448FFF7AEF907220B214548FDF7CB
:1028C000F0FF07220A214348FDF7EBFF4FF4406079
:1028D000059002208DF818008DF8190000208DF861
:1028E0001A0001208DF81B0005A93A48FDF74EFF9C
:1028F00001940020ADF80800ADF80A00ADF80C0016
:10290000ADF810000C20ADF80E0001A92D48FFF71E
:10291000E8F901212B48FFF76CFA012240F225511A
:102920002848FFF71CFB27208DF81C0002208DF89B
:102930001D0003208DF81E0001208DF81F0007A840
:10294000FDF733FE42F2CF01092000F05CF80020D1
:102950001D49088000211D48FEF740FC08B010BD4D
:102960000FB438B505A800901B48009A049900F0F0
:1029700077F800200090184800F084F885B2002411
:102980000DE000BF40210F48FFF70EFB0028F9D0F3
:102990001148015D0B48FFF757FA601C84B2AC4246
:1029A000EFDB38BC5DF814FB10B50748008800F475
:1029B000004028B10648FDF7A0FC0020024908802D
:1029C00010BD0000004800402E0000200014004010
:1029D000A809002000040240F804002010B50121DD
:1029E0001C48FFF72AF868B11B48008840F40040F3
:1029F0001949088001211748FFF730F800211548D0
:102A0000FEF7ECFB10BD7FB505460C4601212020EA
:102A1000FEF7A3F90195ADF800400020ADF80800DD
:102A2000ADF8020069460B48FEF74FFB0122114644
:102A30000848FEF7EBFF37208DF80C0000208DF8DA
:102A40000D0001208DF80E008DF80F0003A8FDF792
:102A5000ACFD7FBD001400402E0000207047000038
:102A60001CB50C46064B7B4469460090204600F09E
:102A7000E4F804460020694600F0F2F820461CBD48
:102A8000F701000010B5431C02E010F8011B71B102
:102A90008107FAD14FF0013202C88C1A8C4314EA34
:102AA000C211F9D0C01A0A0603D0C01E10BDC01A48
:102AB00010BD0A0401D0801E10BD0902FCD0401ECA
:102AC00010BD704770477047704770B50446856900
:102AD0000068C10601D5302600E02026C00707D0D7
:102AE00070BDD4E9012130469047206A401C206225
:102AF0006D1EF6D570BD70B5044685690078C007B7
:102B000007D170BDD4E9012120209047206A401CE4
:102B100020626D1EF6D570BD09684A0501D540B228
:102B20007047C905FCD500B2704709684A0501D550
:102B3000C0B27047C905FCD580B2704770B50C466D
:102B40000546012A05D02878800600D5EA690023C9
:102B500002E0012305E05B1C934202D2E05C002806
:102B6000F9D1A869E618C01AA861286A1844286231
:102B70002846FFF7AAFF04E0D5E9012114F8010B6C
:102B80009047B442F8D32846FFF7B5FF70BD000068
:102B90002DE9F0410646002410687529314616A536
:102BA00010D0FFF7B9FF002802DA404213A507E072
:102BB00031688A0701D512A502E0490704D511A59D
:102BC000012401E0FFF7B1FF00210A2206F12407EA
:102BD00009E0B0FBF2FCB0FBF2F302FB1C0030306A
:102BE00078541846491C0028F3D123462A4630461B
:102BF000BDE8F04100F061BA000000002D000000C7
:102C00002B0000002000000011680268006A5305D4
:102C100001D508700AE0D30501D5088006E0130647
:102C200003D5C217C1E9000200E008600120704727
:102C300001694A1C02610878704700B58FB0CDE980
:102C400001310021059105497944CDE90310114670
:102C5000684600F029F90FB000BD0000E5FFFFFF56
:102C60000A6802F8010B0A60704700002DE9FF5F57
:102C700015468A460446DFF8AC80F8440027D8E9B8
:102C800000103E46CDE9001010E03AF816106A46F2
:102C900002A800F0A6FC411C07D02178890603D5C4
:102CA000E269391891420DD80744761C20788006D5
:102CB00002D5E069B84205DDAE42E6DB3AF816001F
:102CC0000028E2D1A069C01BA0612046FFF7FDFEED
:102CD000D8E90010CDE90010002017E03AF81810EC
:102CE0006A4602A800F07DFCB0F1FF3F81460BD0A0
:102CF00000250DF1080B05E0D4E901211BF80500C2
:102D000090476D1C4D45F7D308F10100B042804655
:102D1000E4DB206A384420622046FFF7ECFEBDE881
:102D2000FF9F0000FE2B00002DE9F0418046D21DE0
:102D300022F007020025D2E90002F52915A614D0D9
:102D4000011E72F1000106DA0023D0EB030063EBF1
:102D5000020211A608E0D8F800108B0701D50FA6D3
:102D600002E0490701D50EA601251146002408F10D
:102D7000240704E000F05CF930323A55641C50EA54
:102D80000102F7D12B46324621464046BDE8F041CC
:102D900000F093B9000000002D0000002B0000009F
:102DA0002000000030B4002100F1240408E002F00B
:102DB0000705D208303542EA4372DB086554491CE6
:102DC00052EA0305F3D10468002310A2250707D5B2
:102DD000A40600D421B1C46901230DA2641EC461FC
:102DE00030BC00F06AB910B5044621461068FFF700
:102DF0009CFE02462046BDE810400023D2E7D21DCB
:102E000022F00701D1E90023CCE700000000000018
:102E100030000000F0B40D460188090502D5214CB0
:102E20007C4402E01F4C7C440E34002100F1240657
:102E300008E002F00F071209E75D42EA03721B097E
:102E40007754491C52EA0307F3D102780023120792
:102E500004D5702D06D009B1022311342246F0BCEE
:102E600000F02BB901231034F8E770B504460D4685
:102E700021461068FFF759FE024629462046BDE864
:102E800070400023C6E7D21D22F00703D3E90023D8
:102E9000C0E70368126843F0200303600823C3619E
:102EA0000023B7E7602A00002DE9F05F8946044659
:102EB0004FF0000ADFF874B1FB44C0F820A02046B0
:102EC000E1688847002874D0252806D0D4E901217C
:102ED0009047206A401C2062F1E700265F462046AA
:102EE000E16888472028054607DB312D05D278198F
:102EF00010F8200C08B10643F1E7B00701D526F021
:102F00000406C4F81CA00027C4F818A02A2D09D074
:102F1000284601F097F838B304EB8708303DC8F82D
:102F2000185019E059F8041B204604EB8702916100
:102F3000E1688847012F054618D1E069002820DAAA
:102F400026F020061DE0D8F8180000EB800005EB05
:102F500040003038C8F818002046E1688847054628
:102F600001F070F80028EED1012F0AD02E2D08D1E3
:102F70002046E16888477F1C0546022F46F0200660
:102F8000C4DBA069002803DA404246F00106A061D4
:102F9000F00701D026F010066C2D0BD0682D09D05B
:102FA0004C2D39D06A2D35D0742D35D07A2D33D0B3
:102FB00016E038E0E1682F4620468847B8420546CB
:102FC00009D16C2F26D04FF48060E168064320467B
:102FD0008847054604E06C2F1AD04FF480700643F2
:102FE0000DB3A5F14100192802D8203546F400663A
:102FF0004A462946204626604E46FDF7FFF880B136
:1030000001280BD0F61D26F0070000F1080956E74D
:103010004020E4E78020D8E70020D6E706F1040945
:103020004DE7284652E7206ABDE8F09FF0290000EE
:1030300030B5B0F10A024FEA900E71F100034EEA8A
:10304000817EB0EB0E0061EB91014FEA101E4EEA5B
:10305000017E10EB0E0041EB11114FEA102E4EEAEB
:10306000016E10EB0E0041EB11214FEA104E4EEABB
:10307000014E10EB0E0041EB1141401841F10001EF
:103080004FEAD00040EA41704FEAD10110EB8005D1
:103090004FEA810444EA907444EB01046D1944EB57
:1030A0000404521BA3414FF0000348BF0A3200D56D
:1030B00030BD401C41F1000130BD2DE9F0470D4607
:1030C00099469246044600F124080168880604D512
:1030D000E06921F01001216000E00120A84201DD3B
:1030E000471B00E00027A1697A1902EB0900081AC2
:1030F000A0612078C00602D42046FFF7E6FC002637
:1031000008E0D4E901211AF806009047206A401C23
:10311000761C20624E45F4DB2078C0060AD5204696
:10312000FFF7D3FC06E0D4E9012130209047206A64
:10313000401C2062381EA7F10107F4DC07E0D4E947
:10314000012118F805009047206A401C2062281EC3
:10315000A5F10105F3DC2046FFF7CDFC2078000641
:1031600002D50220BDE8F0870120FBE770472DE97A
:10317000FF4F0C461E464FF0FF378BB0D2E90001DF
:10318000DDF860800A908A46C1F30A5505B93D46CC
:10319000002108464FF00000BAF1000F00F4400093
:1031A00005DA00EB80004FF4400101EA50004FEADD
:1031B0009059B9F1010F00DDB9460A9850EA4A006A
:1031C0000ED044F61050A5F2FF3545432F14B8F148
:1031D000000F1ED07542291E1EDDC9F100021CE041
:1031E000B8F1010F4FF0000001D0302103E0F243AD
:1031F00005E02154401CB042FBDB30460022002198
:1032000021540B99C1F80880C1E900200FB0BDE836
:10321000F08FBD1B6D1CDEE74A4600DA694206A846
:1032200000F070FA06AB93E8070003AB83E80700F1
:1032300050460A9900F026FB8DE80700A0F50050E3
:103240001F3800900398002D0ADD42F21F014A4604
:103250000844002303A90390684600F08FFD09E0AD
:10326000A0F500504A461F38002303A90390684682
:1032700000F099FD8DE807000004000C03D04FF02A
:10328000FF30410800E01046B8F1000F03D00022E3
:10329000009215461EE0751E05D4FFF7C9FE3032B8
:1032A00062556D1EF9D5B3460122084302D00022B3
:1032B0007F1C04E02078302801D100227F1E002AE4
:1032C000099784D01DE0112D07DAFFF7B1FE3032E7
:1032D00062556D1C50EA0102F5D1084302D00098F6
:1032E000C8B10EE00021681E05E0235C625C6354F7
:1032F0002254401E491C8142F7DBAB46A81B401EEE
:103300000990002004F80B000B98099AC0F8088077
:10331000C0E9002B7AE711264FF0000857E72DE9A6
:10332000F04F88460446D21D22F0070191B0D1E942
:103330000001CDE90A0100F06DFE02460B98C00FB6
:1033400001D02D2007E02068810701D52B2002E065
:10335000202101EAC000032A099001D0072A05DBD9
:1033600003464146204600F08DF90BE120788006A7
:1033700001D5E06900E00620B8F1650F814606D06E
:10338000B8F1660F18D0B8F1670F70D131E00020A6
:10339000B9F1110F009001DB112301E009F10103E4
:1033A0000AAA01A90CA8FFF7E2FEDDE90C700026CD
:1033B00009F10105834647E001204B4600904FF09C
:1033C00000470AAA01A90CA8FFF7D1FEDDE90DB05C
:1033D0000C995D46002610B909F101000D18B9EBF2
:1033E000050003D4C0F1FF3609F10105A5EB090082
:1033F0002BE0B9F1010F01DA4FF001090020B9F11A
:10340000110F0090484601DD112300E003460AAA8F
:1034100001A90CA8FFF7ABFEDDE90C704D460026B4
:103420008346207800070AD4AB4500DA5D4601A840
:10343000012D04DD411911F8011C302907D04F4539
:1034400002DA17F1040F04DA012082460FE06D1E44
:10345000EEE7002F02DCED1B3E4403E0781CA8429F
:1034600000DD7D1CB81B00F1010A4FF000472078F9
:10347000000703D4AA4501DB4FF0FF3A0021B7F162
:10348000004F0DF143088DF8431024D002202B2368
:10349000002F01DA7F422D230A21021EA0F1010034
:1034A00000DC5FB197FBF1FC97FBF1F201FB1C7CA8
:1034B00017460CF1300C08F801CDEEE7A8F1010039
:1034C00003702188090501D5452100E06521A0F19F
:1034D000010800F8011C09980FA9A1EB0807FF1DBE
:1034E00000B10120411901EBEA70A1693844081AC2
:1034F000401EA0612078C00602D42046FFF7E5FAFE
:10350000099828B1D4E901219047206A401C206223
:103510002078C00622D52046FFF7D7FA1EE0002EFD
:1035200004DBB34502DD01A8805D00E03020D4E972
:1035300001219047206A401C2062761CAAF10100FC
:103540005FEA000A0AD100F099F8C0680168405C9F
:10355000D4E901219047206A401C2062281EA5F171
:103560000105DCDC07E0D4E9012118F8010B9047E4
:10357000206A401C2062381EA7F10107F3DC2046B8
:10358000FFF7B9FA032011B041E610B5436913B152
:10359000AFF3008001E0FFF7D1FA012010BD1278EF
:1035A00000F124010A7000224A700122EDE711683F
:1035B0004FF0FF32E9E710B5436913B1AFF3008074
:1035C00001E0FFF753FB012010BD128800F1240138
:1035D00082840022C2840122EDE711684FF0FF329D
:1035E000E9E770B516460C46054600F03FF803685B
:1035F00093F80101012806D0FF2C0FD8185D68B19F
:1036000001202C7070BDD3F807013246214603F229
:10361000071303442846BDE8704018474FF0FF30B9
:1036200070BD754600F0EAF8AE460500694653469F
:1036300020F00700854618B020B5FCF79FFFBDE8D5
:1036400020404FF000064FF000074FF000084FF009
:10365000000B21F00701AC46ACE8C009ACE8C0099A
:10366000ACE8C009ACE8C0098D46704710B500F061
:1036700005F8001D10BD00BF090A00000048704792
:10368000C80D00202DE9F0411F46044603260168BD
:10369000072A01F4006004DB08B116A505E016A5B1
:1036A00003E008B115A500E015A521F01000206089
:1036B000A069C01EA0610FB1401EA0612046FFF7A7
:1036C00004FA4FB1D4E9012138469047206A401CE2
:1036D0002062C01C206206E0206AFAE7D4E90121DA
:1036E00015F8010B9047761EF8D22046FFF703FA33
:1036F000BDE8F0814E414E006E616E00494E4600BD
:10370000696E66002DE9F047814616468AB0354855
:1037100078440DC88DE80D0032487844801C03AC15
:103720000DC884E80D0041F69B300844372190FB1A
:10373000F1F290FBF1F5A5F1800501FB12041B3CB1
:1037400002D56442012000E00020DFF898A0804606
:103750000027FA44AAF1BE0A0EE0E0070AD032467A
:10376000684607EB470101230AEB810100F01BFBD0
:103770008DE8070064107F1C002CEED1194F7F44A8
:10378000AE3F19E0E80715D007EB04100DF1180A59
:1037900090E80E008AE80E00C068F04201D1981946
:1037A00008903246012306A903A800F0FCFA03ABF7
:1037B00083E807006D10641C002DE3D14FF0010376
:1037C00032466946B8F1000F03A802D000F0D6FADD
:1037D00001E000F0E8FAC9E90001C9F808200AB0E0
:1037E000BDE8F0872822000010B50446AFF3008042
:1037F0002046BDE81040FCF766BD00000048704759
:10380000A80D00204FF0013C50F8042B51F8043B68
:103810009A4221D1A2EB0C03934313EACC1317D1A4
:1038200050F8042B51F8043B9A4215D1A2EB0C033B
:10383000934313EACC130BD150F8042B51F8043BFB
:103840009A4209D1A2EB0C03934313EACC13DBD0C9
:103850004FF00000704700BFD01A01BAB1FA81F1F1
:1038600001F0180122FA01F0CB40C1F12001DBB2D6
:10387000C0B2C01A2CFA01F3D11A914311EAC31154
:10388000E6D170475FEA400C08BF91F0000F4FEAA5
:103890008C234FEAC12243EA51514FEA1C5018BF12
:1038A00000F5F0404FEA300018BF41F000415FEAF8
:1038B0006C5C00F02980BCF1FF3F08BF40F0804005
:1038C0007047130C06BF12044FF0100C4FF0000CA1
:1038D000130E04BF12020CF1080C130F04BF1201E7
:1038E0000CF1040C930F04BF92000CF1020CD30FE7
:1038F00004BF52000CF1010C11464FF00002A0F180
:103900001F00A0EB0C00704711F0004F08BF70477C
:1039100031F000413FF4D5AF0B0C06BF09044FF066
:10392000100C4FF0000C0B0E04BF09020CF1080C38
:103930000B0F04BF09010CF1040C8B0F04BF8900AD
:103940000CF1020CCB0F04BF49000CF1010CCCF1BF
:103950002003A0EB0C0022FA03F302FA0CF241EA76
:10396000030100F10100704720F07F4C80EA030062
:1039700023F07F47ACEB070303F57C5300F00040D6
:1039800003F1FF032DE980494FEA154B09B44FEAD3
:10399000144325EA0B4E24EA03480FF2042606EBF3
:1039A000132749083E785FEA320203FB0667C7F532
:1039B000000707FB06F64FEA54374FEAD64606F1F2
:1039C000020607FB066CCCF1005C4FEA1C472CEAB0
:1039D000074C07FB06F40CFB06F504EB15464FEA13
:1039E000961634BF00204FF000404FEAD13706FB57
:1039F00007FC4FEA1C4C0CFB0BF7D21B03FB0CF72C
:103A000061EB07010CFB0EF7B0EB074072EB1742BE
:103A10000CFB08F734BFA2EB0742B2EB074261EBA5
:103A200017414FEA0C444FEA910706FB07FC4FEAA7
:103A30001C4C0CFB0BF7B0EBC74072EB573203FB8F
:103A40000CF734BFA2EBC742B2EBC74261EB573170
:103A50000CFB0EF7B0EBC70072EB57720CFB08F7CC
:103A600034BFA2EBC702B2EBC70261EB5771039FF1
:103A70004FEA816141EA921104EBCC044FEAD1375D
:103A80004FEA826206FB07FC42EA90124FEA80602E
:103A90004FEA1C4C0CFB0BF7D21B03FB0CF761EB42
:103AA00007010CFB0EF7B0EB074072EB17420CFB63
:103AB00008F734BFA2EB0742B2EB074261EB1741B4
:103AC0004FEA8C554FEA910704EB9C2406FB07FC58
:103AD0004FEA1C4C0CFB0BF7B0EBC74072EB5732B4
:103AE00003FB0CF734BFA2EBC742B2EBC74261EB5A
:103AF00057310CFB0EF7B0EBC70072EB57720CFBA3
:103B000008F734BFA2EBC702B2EBC70261EB5771F3
:103B100015EB4C254FEA816141EA92114FEA82622E
:103B20004FEAD13742EA901206FB07FC44F1000449
:103B30004FEA80604FEA1C4C0CFB0BF7D21B03FBD7
:103B40000CF761EB07010CFB0EF7B0EB074072EBD3
:103B500017420CFB08F734BFA2EB0742B2EB074257
:103B600061EB174115EB1C154FEA813141EA924197
:103B70004FEA823242EA90424FEA80304FEA0C76B6
:103B800044F1000448EA03434EEA0B484FF0000EAC
:103B9000B2EB080C71EB030724BF624639464EEBCB
:103BA0000E0E4FF0000B0018524149414BEB0B0B2E
:103BB000B2EB080C71EB03077BF1000B24BF6246EC
:103BC00039464EEB0E0E4FF0000B001852414941A2
:103BD0004BEB0B0BB2EB080C71EB03077BF1000B0B
:103BE00024BF624639464EEB0E0E51EA020718BF5B
:103BF00046F0010616EB0E7655F1000254F1000175
:103C000003D5BDE88901BDE80088BDE88901BDE8AC
:103C10000048B619524141EB0101A3F1010370477D
:103C200080807F7E7D7C7B7A7978777676757473F9
:103C3000727171706F6E6E6D6C6C6B6A6A696868B8
:103C4000676666656464636362616160605F5F5E4E
:103C50005E5D5D5C5C5B5B5A5A59595858575756C4
:103C60005655555554545353525252515150505029
:103C70004F4F4F4E4E4D4D4D4C4C4C4B4B4B4A4A7B
:103C80004A494949484848474747474646464545BF
:103C900045444444444343434342424242414141F8
:103CA000002B9C4630D477002BD01CB54FEA370749
:103CB00003B44FF010004FF01001BAF1000F06D01E
:103CC000BCF1000FDCBF40F0080040F008014FF0ED
:103CD00000000FBCBDE810400BF1010BBBF1010F60
:103CE00008BF5FEA170722BF12F1010211F10101BB
:103CF0004FF0004143F1000300F0004043EA0000B0
:103D00007047F9D35708D0E746EA064613F1400F4B
:103D10004FEA16461FDD13F1200FDFBF16430A4698
:103D2000002120335B42BED0C3F1200746EA06469D
:103D300002FA07F74FEA164646EA0706C3F12007DC
:103D400022FA03F201FA07F721FA03F14FF0000318
:103D500042EA0702A7E746EA020646EA06464FEAB3
:103D6000164646EA0106BCBF46EA0646360C4FF048
:103D700000034FF000024FF0000194E72DE9804C62
:103D80009A46934670B491E8380007C831EA400C6F
:103D900048BF34EA430C03D5FFF7E6FDFFF780FF89
:103DA000F0BCBDE8008C2DE9804C9A46934670B477
:103DB00091E8380007C810F0804F08BF13F0804F1B
:103DC00003D100F005F8FFF76BFFF0BCBDE8008CF5
:103DD00020F07F4780EA030023F07F4C07EB0C03C1
:103DE000A3F57C5300F00040A3F1FE0392F0000F16
:103DF00000F0B38095F0000F00F077802DE90149C5
:103E00004FEA11404FEA144621EA004800FB06FC45
:103E100024EA064708FB06F607FB08F800FB07F74D
:103E200018EB06484CEB164C4FEA124B18EB0748C0
:103E30004FEA15464CEB174022EA0B4E0BFB06FCF3
:103E400025EA06470EFB06F607FB0EFE0BFB07F7FF
:103E50001EEB064E4CEB164C4FF000061EEB074EC9
:103E60004CEB174B18EB0B0840F1000018EB0E0B56
:103E700058EB000840F100008F1A4FF000013CBFE2
:103E8000C943661B14BFB5EB040C00213CBFC943FA
:103E9000F61B4FEA17444EEA8E0E27EA04454FEA16
:103EA0001C4704FB07622CEA074C05FB07F70CFBD9
:103EB00005F604FB0CFC16EB074642EB174216EB2B
:103EC0000C4642EB1C421BEB060658EB020241413A
:103ED00046EA9E0601D5BDE80189B619524141EB7B
:103EE0000101A3F10103BDE801894FEA14454FEA3E
:103EF000114724EA054621EA074C05FB07F406FBB7
:103F000007F70CFB06F105FB0CFC11EB074144EB3A
:103F100017444FEA124711EB0C4144EB1C4422EAD0
:103F2000074C05FB07F206FB07F70CFB06F605FB43
:103F30000CFC16EB074642EB174216EB0C4642EB25
:103F40001C456A1854F1000148BF7047B619524128
:103F500041EB0101A3F10103704795F0000F37D049
:103F60004FEA11424FEA144721EA024624EA074C7D
:103F700002FB07F106FB07F70CFB06F402FB0CFC47
:103F800014EB074441EB17414FEA154714EB0C447F
:103F900041EB1C4125EA074C02FB07F506FB07F73E
:103FA0000CFB06F602FB0CFC16EB074645EB17452F
:103FB00016EB0C4645EB1C42121951F1000148BFAB
:103FC0007047B619524141EB0101A3F1010370475B
:103FD0004FEA14454FEA114724EA054621EA074C07
:103FE00005FB07F106FB07F70CFB06F24FF0000696
:103FF00005FB0CFC12EB074241EB174112EB0C42A4
:1040000051EB1C4148BF7047921841EB0101A3F1ED
:104010000103704703B401984100009850EAC120A1
:1040200018BF04204A0D18BF40F0010040F2FF7293
:10403000B2EB515F08BF40F00200012808BF052025
:1040400002B0704730380A2801D2012070470020A2
:104050007047000010B500290AD00878002807D062
:1040600005487844FFF7CEFB002801D0002010BDA2
:104070000248784410BD0000121900000A1900001F
:1040800010B500290AD00878002807D005487844E0
:10409000FFF7B8FB002801D0002010BD024878448B
:1040A00010BD000002190000FA1800004FF0407027
:1040B000E1EE100A7047FFF732B90000000000007F
:1040C000000000000000000000003F400000000071
:1040D00000000000300040003000400000000900F7
:1040E0000BC03D000BC03D00090018C024407FE01C
:1040F000224031800000180024C01B000D80324097
:10410000018003801C4027401C80074000401000B5
:10411000600000000000000000000000000000003F
:104120001F80204040200000402020401F800000D1
:104130000000090006001F800600090000000400BE
:1041400004003F8004000400000000100060000034
:10415000000000000000040004000400040004004B
:1041600000000000004000000000000000000020EF
:1041700001C006003800400000001F8020402040A1
:1041800020401F800000000010403FC000400000A1
:10419000000018C021402240244018400000108038
:1041A0002040244024401B80000002000D0011002C
:1041B0003FC0014000003C80244024402440238034
:1041C00000001F8024402440344003800000300061
:1041D000200027C03800200000001B80244024401D
:1041E00024401B8000001C0022C0224022401F806F
:1041F0000000000000000840000000000000000077
:1042000000000460000000000000000004000A003C
:104210001100208040400900090009000900090040
:10422000000000004040208011000A000400180037
:10423000200023402400180000001F802040274059
:1042400029401F400000004007C039000F0001C096
:10425000004020403FC0244024401B8000001F80BD
:104260002040204020403080000020403FC02040BF
:1042700020401F80000020403FC024402E4030C01E
:10428000000020403FC024402E00300000000F00FE
:104290001080204022403380020020403FC00400B4
:1042A00004003FC02040204020403FC0204020402C
:1042B00000000060202020203FC02000200020407F
:1042C0003FC024400B0030C0204020403FC0204071
:1042D0000040004000C03FC03C0003C03C003FC065
:1042E000000020403FC00C4023003FC020001F8042
:1042F0002040204020401F80000020403FC024403C
:104300002400180000001F802140214020E01FA051
:10431000000020403FC02440260019C0004018C0C3
:1043200024402440224031800000300020403FC023
:1043300020403000000020003F80004000403F80CF
:10434000200020003E0001C0070038002000380097
:1043500007C03C0007C038000000204039C00600FC
:1043600039C0204000002000384007C038402000FD
:104370000000304021C02640384020C0000000002E
:1043800000007FE0402040200000000070000C0092
:104390000380004000000000402040207FE000003B
:1043A000000000002000400020000000000000107D
:1043B000001000100010001000100000000040006D
:1043C000000000000000000002800540054003C01E
:1043D000004020003FC00440044003800000000073
:1043E00003800440044006400000000003800440B5
:1043F00024403FC0004000000380054005400340CA
:104400000000000004401FC02440244020000000A1
:1044100002E0055005500650042020403FC00440F3
:10442000040003C000400000044027C0004000001A
:10443000000000100010041027E0000000002040E1
:104440003FC00140070004C00440204020403FC05E
:1044500000400040000007C0040007C0040003C083
:104460000000044007C00440040003C000400000F6
:1044700003800440044003800000041007F004504F
:10448000044003800000000003800440045007F053
:104490000010044007C002400400040000000000B7
:1044A00006400540054004C00000000004001F80D5
:1044B000044000400000040007800040044007C0A2
:1044C00000400400070004C001800600040006004C
:1044D00001C0070001C006000000044006C0010042
:1044E00006C0044000000410071004E0018006002C
:1044F00004000000044005C0064004400000000025
:10450000000004007BE040200000000000000000EC
:10451000FFF000000000000040207BE004000000ED
:10452000000040008000400020002000400000000B
:10453000000000000000000000000000000000007B
:10454000000000001FCC000C000000000000000074
:104550000800300060000800300060000000022009
:1045600003FC1E20022003FC1E200220000000008D
:104570000E1811043FFF10840C78000000000F009B
:1045800010840F3800C00778188400780000007885
:104590000F8410C411240E9800E400840008080061
:1045A0006800700000000000000000000000000033
:1045B0000000000007E0181820044002000000007E
:1045C00040022004181807E000000000000002402C
:1045D000024001800FF00180024002400000008094
:1045E000008000800FF80080008000800000000143
:1045F000000D000E000000000000000000000000A0
:10460000008000800080008000800080008000002A
:10461000000C000C00000000000000000000000082
:10462000000600180060018006001800200000004D
:1046300007F0080810041004080807F00000000044
:10464000080408041FFC000400040000000000002F
:104650000E0C10141024104411840E0C00000000E5
:104660000C1810041104110412880C7000000000D2
:1046700000E00320042408241FFC002400000000A4
:104680001F9810841104110410881070000000009D
:1046900007F0088811041104188800700000000059
:1046A0001C00100010FC13001C0010000000000093
:1046B0000E3811441084108411440E38000000009C
:1046C0000700088C10441044088807F00000000020
:1046D00000000000030C030C0000000000000000BC
:1046E00000000001010600000000000000000000C2
:1046F000008001400220041008081004000002207D
:1047000002200220022002200220022000000000DD
:10471000100408080410022001400080000000007E
:104720000E001200100C106C10800F00000003E04F
:104730000C1813E4142417C4082807D00000000440
:10474000003C03C41C40074000E4001C00041004AB
:104750001FFC1104110411040E880070000003E016
:104760000C1810041004100410081C100000100491
:104770001FFC100410041004080807F000001004C7
:104780001FFC1104110417C41004081800001004C1
:104790001FFC1104110017C010000800000003E006
:1047A0000C181004100410441C7800400000100481
:1047B0001FFC10840080008010841FFC1004000087
:1047C000100410041FFC100410040000000000037B
:1047D0000001100110011FFE100010000000100465
:1047E0001FFC110403801464181C10040000100442
:1047F0001FFC1004000400040004000C000010045E
:104800001FFC1F0000FC1F001FFC10040000100410
:104810001FFC0C04030000E010181FFC100007F040
:104820000808100410041004080807F00000100421
:104830001FFC10841080108010800F00000007F013
:10484000081810241024101C080A07F20000100495
:104850001FFC1104110011C011300E0C00040000E7
:104860000E1C11041084108410441C380000180021
:10487000100010041FFC10041000180000001000AD
:104880001FF810040004000410041FF810001000AA
:104890001E0011E0001C007013801C0010001FC0DF
:1048A000103C00E01F0000E0103C1FC0000010049E
:1048B000180C163401C001C01634180C1004100076
:1048C0001C00130400FC13041C001000000008046A
:1048D000101C1064108413041C0410180000000045
:1048E000000000007FFE4002400240020000000085
:1048F00030000C0003800060001C0003000000007A
:104900004002400240027FFE000000000000000064
:104910000000200040004000400020000000000196
:104920000001000100010001000100010001000080
:1049300040004000200000000000000000000000D7
:104940000098012401440144014400FC00041000CB
:104950001FFC0088010401040088007000000000B2
:1049600000700088010401040104008800000000B8
:10497000007000880104010411081FFC00040000FD
:1049800000F8014401440144014400C80000000053
:10499000010401040FFC11041104110018000000AF
:1049A00000D601290129012901C9010600001004CE
:1049B0001FFC008401000100010400FC0004000051
:1049C0000104190419FC00040004000000000000A8
:1049D000000300010101190119FE0000000010048C
:1049E0001FFC0024004001B4010C01040000000081
:1049F000100410041FFC0004000400000000010467
:104A000001FC0104010001FC0104010000FC01049F
:104A100001FC008401000100010400FC000400000E
:104A200000F8010401040104010400F80000010180
:104A300001FF0085010401040088007000000000EF
:104A40000070008801040104010501FF0001010458
:104A5000010401FC00840104010001800000000049
:104A600000CC01240124012401240198000000004D
:104A70000100010007F8010401040000000001002A
:104A800001F8000400040004010801FC0004010016
:104A900001800170000C001001600180010001F034
:104AA000010C003001C00030010C01F001000000D9
:104AB0000104018C00740170018C010400000101EB
:104AC00001810171000E00180160018001000000E9
:104AD0000184010C013401440184010C0000000038
:104AE00000000000000001003EFC40024002000007
:104AF000000000000000FFFF0000000000000000B8
:104B0000400240023EFC01000000000000000000E6
:104B10006000800080004000400020002000000075
:104B20000000000000000000000000000000000085
:104B30000000000000000000000000000000000075
:104B40000000000000000000000000000000000065
:104B5000000F80380FFE380F803800000000000082
:104B6000000000000000000000000000010000063E
:104B700000000C00003800003100000600000C00AE
:104B800000380000300000000000000000006180DC
:104B90000067F807F9800061800061800061800093
:104BA00061800067F807F980006180000000000064
:104BB0000000000001C0E003E0F00630080418081F
:104BC0001FFFFE040E080787F00381E000000000CD
:104BD000000001F000060C00040408060C7001F946
:104BE000C0000E00003BE000EC18070808040C1899
:104BF0000003E00000000001E00007F003F81804E3
:104C00001C0804170807E1D003C0E00023B0003CF3
:104C10000800200800001000000000000001000053
:104C20003100003200001C00000000000000000005
:104C30000000000000000000000000000000000074
:104C400000000000000000000000000000007F00E5
:104C500001FFC00780F00C001810000420000200C3
:104C600000000000002000021000040C0018078063
:104C7000F001FFC0007F0000000000000000000005
:104C8000000000000000000000004200006600007C
:104C90006600003C0000180003FFC0001800003C44
:104CA00000006600006600004200000000000800EE
:104CB00000080000080000080000080001FFC00014
:104CC00008000008000008000008000008000000BC
:104CD0000000000100003100003200001C00000054
:104CE00000000000000000000000000000000000C4
:104CF0000000000000000800000800000800000894
:104D0000000008000008000008000008000008007B
:104D10000008000000000000000000000000380053
:104D20000038000038000000000000000000000013
:104D3000000000000000000000000000000000066D
:104D400000001C000070000180000E000038000010
:104D5000C0000700001C0000300000000000000040
:104D600000007F8001FFE003807006001804000847
:104D700004000806001803807001FFE0007F800037
:104D80000000000000000000010008010008010010
:104D90000803FFF807FFF8000008000008000008FB
:104DA00000000000000000000001C03802C05804EC
:104DB0000098040118040218040418061C1803F8CB
:104DC0001801E0F800000000000000000001C0E051
:104DD00003C0F004000804080804080806180803C3
:104DE000F41801E7F00001E00000000000000000FE
:104DF00000000300000D00001100006100008108A8
:104E000003010807FFF80FFFF80001080001080080
:104E100000000000000000E007FCD00608080610B3
:104E200008061008061008061838060FF00607C016
:104E3000000000000000000000003F8001FFE003D0
:104E40008430020818041008041008041008071819
:104E500010030FF00007C000000000000000000079
:104E600003C0000700000600000600F80607F80669
:104E7000180006E000070000060000000000000027
:104E80000001E1E003F7F0063410041808041808E4
:104E9000040C08040C0806161803F3F001C1E00026
:104EA000000000000000F80003FC30030638040294
:104EB000080402080402080404100308F001FFC0FB
:104EC000007F000000000000000000000000000063
:104ED00000000000000070380070380070380000DA
:104EE00000000000000000000000000000000000C2
:104EF00000000000000000000000301A00301C001C
:104F000000000000000000000000000000000000A1
:104F10000000000000080000140000220000410012
:104F200000808001004002002004001008000800FA
:104F300000000000000021000021000021000021ED
:104F400000002100002100002100002100002100BC
:104F5000002100000000000000000000080008041C
:104F6000001002002001004000808000410000226B
:104F70000000140000080000000000000003C00052
:104F800004C000040000080038080F38080838087A
:104F900010000C300007E00003C00000000000001B
:104FA00000003F8000FFE0038070020F1006708851
:104FB00004C088048308047F8802C0900301200095
:104FC000FE400000080000180001F8003E0801C281
:104FD0000007020007E20000FE00001FC80001F801
:104FE00000003800000804000807FFF807FFF80475
:104FF000080804080804080804080806180803F448
:105000001801E7F00001E0000000000000003F8010
:1050100001FFE00380700200180400080400080487
:1050200000080400100600200780C00000000400F3
:105030000807FFF807FFF804000804000804000848
:1050400004001802001003807001FFE0007F800060
:10505000000004000807FFF807FFF8040808040828
:1050600008040808040808043E080400080600189C
:1050700001006000000004000807FFF807FFF804C3
:105080000808040800040800040800043E000600A4
:1050900000060000018000000000000000003F80CA
:1050A00001FFE003807006001804000804020804F1
:1050B00002080203F00783F000020000020004006F
:1050C0000807FFF807FFF8040808000800000800B8
:1050D00000080000080004080807FFF807FFF804AC
:1050E000000800000000000004000804000804009C
:1050F0000807FFF807FFF804000804000804000888
:105100000000000000000000000000060000070092
:10511000000104000104000104000307FFFE07FF73
:10512000FC04000004000004000004000807FFF86D
:1051300007FFF8040C08001800003E0004C78005B3
:1051400003C80600F8040038040018000008040032
:105150000807FFF807FFF80400080000080000082F
:1051600000000800000800000800001800006000AF
:10517000000004000807FFF807800807FC00007F14
:10518000C00003F80007C000780007800807FFF898
:1051900007FFF804000804000807FFF807000803E9
:1051A000C00000E000003800001E00000700000101
:1051B000C00400F007FFF8040000000000007F803A
:1051C00001FFE003807006001804000804000806D0
:1051D000001803003001FFE0007F800000000400A1
:1051E0000807FFF807FFF80404080404000404009B
:1051F000040400040400060C0003F80001F00000A1
:105200000000000000007F8001FFE00380700600C6
:10521000880400880400C806003C03003E01FFE645
:10522000007F8400000004000807FFF807FFF8046F
:105230000808040800040C00040F00040BC006104A
:10524000F003F03801E00800000800000001E0F879
:1052500003F030063010041808041808040C080481
:105260000C080206180207F00781E0000000018028
:105270000006000004000004000004000807FFF816
:1052800007FFF80400080400000400000600000105
:10529000800004000007FFE007FFF0040018000092
:1052A00008000008000008000008000008040010C2
:1052B00007FFE004000004000006000007E000070C
:1052C000FE00041FE00001F80000380001E0043E89
:1052D0000007C00006000004000004000007E00012
:1052E00007FFC0041FF80007C007F80007FF80048D
:1052F0003FF80007C004F8000700000400000000A9
:105300000004000806001807C07805F1C8003E0038
:10531000001F800463E80780F806001804000800F6
:10532000000004000006000007800007E008047C7D
:1053300008001FF80007F800180804E0080700003C
:105340000600000400000000000100080600380408
:1053500000F80403E8040F08047C0805F00807C0FF
:1053600008070018040060000000000000000000B2
:105370000000000000000000003FFFFE20000220AF
:1053800000022000022000022000020000000000B5
:105390000000000008000007000000C00000380006
:1053A0000006000001C000003000000E00000100F7
:1053B0000000000000000000200002200002200089
:1053C000022000022000023FFFFE0000000000005B
:1053D00000000000000000000000000000000008C5
:1053E000000010000030000020000030000010001D
:1053F00000080000000000000000000001000001A3
:105400000000010000010000010000010000010097
:105410000001000001000001000001000001000087
:10542000000000000000002000002000001000002C
:10543000100000000000000000000000000000005C
:1054400000000000000000F00019F8001B18002206
:1054500008002608002408002410003FF8001FF868
:1054600000000800001800000004000007FFF80F0B
:10547000FFF0001818001008002008002008003075
:1054800018001FF0000FC00000000000000007C05F
:10549000001FF0001830002008002008002008003D
:1054A0003C08001C1000006000000000000000002C
:1054B000000007C0001FF000381800200800200876
:1054C00000200804101007FFF80FFFF00000100084
:1054D00000000000000000000007C0001FF00012E4
:1054E00030002218002208002208003208001E1096
:1054F000000E200000000000000020000020080036
:10550000200801FFF803FFF8062008042008042003
:105510000807200003000000000000000000000E4B
:10552000000E6E001FF30031B10020B10020B10069
:105530003191001F13002E1E00200E0030000000CD
:105540000004000807FFF80FFFF800100800200013
:10555000002000002008003FF8001FF800000800AD
:1055600000000000000000000020080020080020CB
:1055700008063FF8063FF800000800000800000891
:105580000000000000000000000000000000030018
:105590000003002001002001002003063FFE063F1B
:1055A000FC000000000000000000000000040008F3
:1055B00007FFF80FFFF8000188000300002FC0006C
:1055C00038F8002038002008000008000000000023
:1055D0000000000004000804000804000807FFF8A9
:1055E0000FFFF8000008000008000008000000009D
:1055F0000000002008003FF8003FF80010080020DD
:1056000000003FF8003FF8001008002000003FF8BD
:10561000003FF8000008000000002008003FF800EC
:105620003FF8001008001000002000002008003F94
:10563000F8001FF80000080000000000000007C08C
:10564000000FF0001830003008002008002008008B
:105650003008001830000FF00007C0000000000004
:1056600000002001003FFF003FFF00101100200953
:10567000002008002008003038001FF0000FC00094
:1056800000000000000007C0001FF00038180020D4
:1056900008002008002009001011001FFF003FFF34
:1056A0000000010000000020080020080020080081
:1056B0003FF8003FF800080800100800200800200C
:1056C000000030000030000000000000000000007A
:1056D000000C78001E180033080023080021080081
:1056E00021880021980030F00038600000000000A0
:1056F0000000200000200000200000FFF003FFF861
:1057000000200800200800200800003000000000F1
:105710000000000000002000003FF0007FF80000C3
:1057200018000008000008002010003FF8007FF07B
:105730000000100000000000000020000030000009
:105740003C00003F800023F0000078000070002340
:1057500080003C00003000002000002000003C00E1
:10576000003FE00023F80000E0002700003E0000BA
:105770003FE00021F80001E0003E000020000000B2
:1057800000002008002008003838003E680027800C
:105790000003C8002CF8003838002018002008004A
:1057A0000000000000002000003003003C01003F2A
:1057B000830023EC000070002380003C00002000E8
:1057C0000020000000000000000000000038080079
:1057D00020380020F80023E8002F88003E08003819
:1057E0000800201800007000000000000000000009
:1057F0000000000000000000000008000014001F6E
:10580000F7FC30000620000200000000000000004D
:105810000000000000000000000000000000000088
:10582000FFFFFF000000000000000000000000007B
:1058300000000000000000002000023000061FF7FA
:10584000FC00140000080000000000000000000040
:105850000000000000000000001800006000004090
:1058600000004000002000001000000800000400BC
:10587000000400000C000010000000000000000008
:105880000000000030313233343536373839414288
:105890004344454640305800303132333435363792
:1058A000383961626364656640307800040000083E
:1058B00000000000000000020001000010000000D5
:1058C00002400000000000A00000000005400000B1
:1058D000000000C8000000000C4000000000409CD8
:1058E00000000000194000000020BCBE00000000C5
:1058F00034400000BFC91B8E00000004B54000000A
:10590000504BCFD06607E2CF010000006C41000091
:105910003E8251AADFEEA73401000000D942000008
:10592000DCB5A0E23A301F97FFFFFFFFB44500004F
:10593000FD25A0C8E9A3C14FFFFFFFFFFF3F000007
:105940000000008000000000FF3F00000000008019
:1059500000000000A05A00080000002030000000F5
:10596000C4010008D05A000830000020D8130000FD
:10597000E00100081C00000043000000F8FFFFFFEA
:105980000C0000000E0000000F0000002E000000C0
:105990001001000043000000F8FFFFFF00404040FE
:1059A00040404040404041414141414040404040F2
:1059B000404040404040404040404040400502029E
:1059C000020202020202020202020202022020205D
:1059D00020202020202020020202020202029090B9
:1059E00090909090101010101010101010101010B7
:1059F000101010101010101002020202020288880B
:105A00008888888808080808080808080808080816
:105A100008080808080808080202020240000000FE
:105A20000000000000000000000000000000000076
:105A30000000000000000000000000000000000066
:105A40000000000000000000000000000000000056
:105A50000000000000000000000000000000000046
:105A60000000000000000000000000000000000036
:105A70000000000000000000000000000000000026
:105A80000000000000000000000000000000000016
:105A90000000000000000000000000000000000006
:105AA000007A030A00000000000000000102030465
:105AB00006070809000000000102030401020304B4
:105AC00006070809000000000000000000000000B8
:040000050800018965
:00000001FF
